{
  "contractName": "FileSharing",
  "abi": [
    {
      "anonymous": false,
      "inputs": [
        {
          "indexed": false,
          "internalType": "string",
          "name": "fileName",
          "type": "string"
        },
        {
          "indexed": false,
          "internalType": "address",
          "name": "requester",
          "type": "address"
        }
      ],
      "name": "AccessApproved",
      "type": "event"
    },
    {
      "anonymous": false,
      "inputs": [
        {
          "indexed": false,
          "internalType": "string",
          "name": "fileName",
          "type": "string"
        },
        {
          "indexed": false,
          "internalType": "address",
          "name": "requester",
          "type": "address"
        }
      ],
      "name": "AccessRequested",
      "type": "event"
    },
    {
      "anonymous": false,
      "inputs": [
        {
          "indexed": false,
          "internalType": "string",
          "name": "fileName",
          "type": "string"
        },
        {
          "indexed": false,
          "internalType": "address",
          "name": "owner",
          "type": "address"
        }
      ],
      "name": "FileUploaded",
      "type": "event"
    },
    {
      "inputs": [
        {
          "internalType": "string",
          "name": "",
          "type": "string"
        }
      ],
      "name": "accessRequests",
      "outputs": [
        {
          "internalType": "address",
          "name": "requester",
          "type": "address"
        },
        {
          "internalType": "bool",
          "name": "approved",
          "type": "bool"
        },
        {
          "internalType": "bool",
          "name": "exists",
          "type": "bool"
        },
        {
          "internalType": "string",
          "name": "publicKey",
          "type": "string"
        },
        {
          "internalType": "bytes",
          "name": "encryptedKey",
          "type": "bytes"
        }
      ],
      "stateMutability": "view",
      "type": "function",
      "constant": true
    },
    {
      "inputs": [
        {
          "internalType": "string",
          "name": "",
          "type": "string"
        }
      ],
      "name": "files",
      "outputs": [
        {
          "internalType": "string",
          "name": "fileName",
          "type": "string"
        },
        {
          "internalType": "address",
          "name": "owner",
          "type": "address"
        },
        {
          "internalType": "bool",
          "name": "exists",
          "type": "bool"
        }
      ],
      "stateMutability": "view",
      "type": "function",
      "constant": true
    },
    {
      "inputs": [
        {
          "internalType": "string",
          "name": "_fileName",
          "type": "string"
        }
      ],
      "name": "uploadFile",
      "outputs": [],
      "stateMutability": "nonpayable",
      "type": "function"
    },
    {
      "inputs": [
        {
          "internalType": "string",
          "name": "_fileName",
          "type": "string"
        },
        {
          "internalType": "string",
          "name": "_publicKey",
          "type": "string"
        }
      ],
      "name": "requestAccess",
      "outputs": [],
      "stateMutability": "nonpayable",
      "type": "function"
    },
    {
      "inputs": [
        {
          "internalType": "string",
          "name": "_fileName",
          "type": "string"
        },
        {
          "internalType": "bytes",
          "name": "_encryptedKey",
          "type": "bytes"
        }
      ],
      "name": "approveAccessWithKey",
      "outputs": [],
      "stateMutability": "nonpayable",
      "type": "function"
    },
    {
      "inputs": [
        {
          "internalType": "string",
          "name": "_fileName",
          "type": "string"
        }
      ],
      "name": "isAccessApproved",
      "outputs": [
        {
          "internalType": "bool",
          "name": "",
          "type": "bool"
        }
      ],
      "stateMutability": "view",
      "type": "function",
      "constant": true
    }
  ],
  "bytecode": "0x608060405234801561001057600080fd5b50611200806100206000396000f3fe608060405234801561001057600080fd5b50600436106100625760003560e01c80630b3fd21e1461006757806316157f6c146100835780635f3e80291461009f57806382f14c67146100d3578063e37ffc3014610103578063e77557611461011f575b600080fd5b610081600480360381019061007c9190610bbb565b610151565b005b61009d60048036038101906100989190610c27565b61035b565b005b6100b960048036038101906100b49190610b7a565b61053a565b6040516100ca959493929190610e6b565b60405180910390f35b6100ed60048036038101906100e89190610b7a565b6106d0565b6040516100fa9190610ecc565b60405180910390f35b61011d60048036038101906101189190610b7a565b610708565b005b61013960048036038101906101349190610b7a565b61088c565b60405161014893929190610f17565b60405180910390f35b3373ffffffffffffffffffffffffffffffffffffffff166000836040516101789190610e54565b908152602001604051809103902060010160009054906101000a900473ffffffffffffffffffffffffffffffffffffffff1673ffffffffffffffffffffffffffffffffffffffff1614610200576040517f08c379a00000000000000000000000000000000000000000000000000000000081526004016101f790610f95565b60405180910390fd5b6001826040516102109190610e54565b908152602001604051809103902060000160159054906101000a900460ff1661026e576040517f08c379a000000000000000000000000000000000000000000000000000000000815260040161026590610f75565b60405180910390fd5b6001808360405161027f9190610e54565b908152602001604051809103902060000160146101000a81548160ff021916908315150217905550806001836040516102b89190610e54565b908152602001604051809103902060020190805190602001906102dc929190610981565b507f8f8e871778673452dc0de9e1c7af36f496e6ef106308b847488abf7d492b57c78260018460405161030f9190610e54565b908152602001604051809103902060000160009054906101000a900473ffffffffffffffffffffffffffffffffffffffff1660405161034f929190610ee7565b60405180910390a15050565b60008260405161036b9190610e54565b908152602001604051809103902060010160149054906101000a900460ff166103c9576040517f08c379a00000000000000000000000000000000000000000000000000000000081526004016103c090610f55565b60405180910390fd5b6040518060a001604052803373ffffffffffffffffffffffffffffffffffffffff1681526020016000151581526020016001151581526020018281526020016040518060200160405280600081525081525060018360405161042b9190610e54565b908152602001604051809103902060008201518160000160006101000a81548173ffffffffffffffffffffffffffffffffffffffff021916908373ffffffffffffffffffffffffffffffffffffffff16021790555060208201518160000160146101000a81548160ff02191690831515021790555060408201518160000160156101000a81548160ff02191690831515021790555060608201518160010190805190602001906104dc929190610a07565b5060808201518160020190805190602001906104f9929190610981565b509050507fee0616a3f5c7124ac9c522489fec438ce9643105349cd1d6669cc3cd1410e9b8823360405161052e929190610ee7565b60405180910390a15050565b6001818051602081018201805184825260208301602085012081835280955050505050506000915090508060000160009054906101000a900473ffffffffffffffffffffffffffffffffffffffff16908060000160149054906101000a900460ff16908060000160159054906101000a900460ff16908060010180546105bf90611129565b80601f01602080910402602001604051908101604052809291908181526020018280546105eb90611129565b80156106385780601f1061060d57610100808354040283529160200191610638565b820191906000526020600020905b81548152906001019060200180831161061b57829003601f168201915b50505050509080600201805461064d90611129565b80601f016020809104026020016040519081016040528092919081815260200182805461067990611129565b80156106c65780601f1061069b576101008083540402835291602001916106c6565b820191906000526020600020905b8154815290600101906020018083116106a957829003601f168201915b5050505050905085565b60006001826040516106e29190610e54565b908152602001604051809103902060000160149054906101000a900460ff169050919050565b6000816040516107189190610e54565b908152602001604051809103902060010160149054906101000a900460ff1615610777576040517f08c379a000000000000000000000000000000000000000000000000000000000815260040161076e90610fb5565b60405180910390fd5b60405180606001604052808281526020013373ffffffffffffffffffffffffffffffffffffffff168152602001600115158152506000826040516107bb9190610e54565b908152602001604051809103902060008201518160000190805190602001906107e5929190610a07565b5060208201518160010160006101000a81548173ffffffffffffffffffffffffffffffffffffffff021916908373ffffffffffffffffffffffffffffffffffffffff16021790555060408201518160010160146101000a81548160ff0219169083151502179055509050507f430921b453a6efbad0a7ee7b807d8698bfa8f6991266115e4a6e437b6a2960a28133604051610881929190610ee7565b60405180910390a150565b6000818051602081018201805184825260208301602085012081835280955050505050506000915090508060000180546108c590611129565b80601f01602080910402602001604051908101604052809291908181526020018280546108f190611129565b801561093e5780601f106109135761010080835404028352916020019161093e565b820191906000526020600020905b81548152906001019060200180831161092157829003601f168201915b5050505050908060010160009054906101000a900473ffffffffffffffffffffffffffffffffffffffff16908060010160149054906101000a900460ff16905083565b82805461098d90611129565b90600052602060002090601f0160209004810192826109af57600085556109f6565b82601f106109c857805160ff19168380011785556109f6565b828001600101855582156109f6579182015b828111156109f55782518255916020019190600101906109da565b5b509050610a039190610a8d565b5090565b828054610a1390611129565b90600052602060002090601f016020900481019282610a355760008555610a7c565b82601f10610a4e57805160ff1916838001178555610a7c565b82800160010185558215610a7c579182015b82811115610a7b578251825591602001919060010190610a60565b5b509050610a899190610a8d565b5090565b5b80821115610aa6576000816000905550600101610a8e565b5090565b6000610abd610ab884611006565b610fd5565b905082815260208101848484011115610ad557600080fd5b610ae08482856110e7565b509392505050565b6000610afb610af684611036565b610fd5565b905082815260208101848484011115610b1357600080fd5b610b1e8482856110e7565b509392505050565b600082601f830112610b3757600080fd5b8135610b47848260208601610aaa565b91505092915050565b600082601f830112610b6157600080fd5b8135610b71848260208601610ae8565b91505092915050565b600060208284031215610b8c57600080fd5b600082013567ffffffffffffffff811115610ba657600080fd5b610bb284828501610b50565b91505092915050565b60008060408385031215610bce57600080fd5b600083013567ffffffffffffffff811115610be857600080fd5b610bf485828601610b50565b925050602083013567ffffffffffffffff811115610c1157600080fd5b610c1d85828601610b26565b9150509250929050565b60008060408385031215610c3a57600080fd5b600083013567ffffffffffffffff811115610c5457600080fd5b610c6085828601610b50565b925050602083013567ffffffffffffffff811115610c7d57600080fd5b610c8985828601610b50565b9150509250929050565b610c9c816110a9565b82525050565b610cab816110bb565b82525050565b6000610cbc82611066565b610cc6818561107c565b9350610cd68185602086016110f6565b610cdf816111b9565b840191505092915050565b6000610cf582611071565b610cff818561108d565b9350610d0f8185602086016110f6565b610d18816111b9565b840191505092915050565b6000610d2e82611071565b610d38818561109e565b9350610d488185602086016110f6565b80840191505092915050565b6000610d6160138361108d565b91507f46696c6520646f6573206e6f74206578697374000000000000000000000000006000830152602082019050919050565b6000610da1601d8361108d565b91507f416363657373207265717565737420646f6573206e6f742065786973740000006000830152602082019050919050565b6000610de1601d8361108d565b91507f4f6e6c79206f776e65722063616e20617070726f7665206163636573730000006000830152602082019050919050565b6000610e2160138361108d565b91507f46696c6520616c726561647920657869737473000000000000000000000000006000830152602082019050919050565b6000610e608284610d23565b915081905092915050565b600060a082019050610e806000830188610c93565b610e8d6020830187610ca2565b610e9a6040830186610ca2565b8181036060830152610eac8185610cea565b90508181036080830152610ec08184610cb1565b90509695505050505050565b6000602082019050610ee16000830184610ca2565b92915050565b60006040820190508181036000830152610f018185610cea565b9050610f106020830184610c93565b9392505050565b60006060820190508181036000830152610f318186610cea565b9050610f406020830185610c93565b610f4d6040830184610ca2565b949350505050565b60006020820190508181036000830152610f6e81610d54565b9050919050565b60006020820190508181036000830152610f8e81610d94565b9050919050565b60006020820190508181036000830152610fae81610dd4565b9050919050565b60006020820190508181036000830152610fce81610e14565b9050919050565b6000604051905081810181811067ffffffffffffffff82111715610ffc57610ffb61118a565b5b8060405250919050565b600067ffffffffffffffff8211156110215761102061118a565b5b601f19601f8301169050602081019050919050565b600067ffffffffffffffff8211156110515761105061118a565b5b601f19601f8301169050602081019050919050565b600081519050919050565b600081519050919050565b600082825260208201905092915050565b600082825260208201905092915050565b600081905092915050565b60006110b4826110c7565b9050919050565b60008115159050919050565b600073ffffffffffffffffffffffffffffffffffffffff82169050919050565b82818337600083830152505050565b60005b838110156111145780820151818401526020810190506110f9565b83811115611123576000848401525b50505050565b6000600282049050600182168061114157607f821691505b602082108114156111555761115461115b565b5b50919050565b7f4e487b7100000000000000000000000000000000000000000000000000000000600052602260045260246000fd5b7f4e487b7100000000000000000000000000000000000000000000000000000000600052604160045260246000fd5b6000601f19601f830116905091905056fea2646970667358221220e5fb0dc11a0a65e0a5c06a54106cf86a7022751b65d87ddbe124dedede3dd6e664736f6c63430008000033",
  "immutableReferences": {},
  "source": "// SPDX-License-Identifier: MIT\npragma solidity ^0.8.0;\n\ncontract FileSharing {\n    struct File {\n        string fileName;\n        address owner;\n        bool exists;\n    }\n\n    struct AccessRequest {\n        address requester;\n        bool approved;\n        bool exists;\n        string publicKey;  // Store the requester's public key\n        bytes encryptedKey;  // Encrypted AES key (added later during approval)\n    }\n\n    mapping(string => File) public files;\n    mapping(string => AccessRequest) public accessRequests;\n\n    event FileUploaded(string fileName, address owner);\n    event AccessRequested(string fileName, address requester);\n    event AccessApproved(string fileName, address requester);\n\n    // Upload a file and record it on the blockchain\n    function uploadFile(string memory _fileName) public {\n        require(!files[_fileName].exists, \"File already exists\");\n        files[_fileName] = File(_fileName, msg.sender, true);\n        emit FileUploaded(_fileName, msg.sender);\n    }\n\n    // Request access to a file with the requester's public key\n    function requestAccess(string memory _fileName, string memory _publicKey) public {\n        require(files[_fileName].exists, \"File does not exist\");\n        accessRequests[_fileName] = AccessRequest(msg.sender, false, true, _publicKey, \"\");\n        emit AccessRequested(_fileName, msg.sender);\n    }\n\n    // Approve access and store the encrypted AES key\n    function approveAccessWithKey(string memory _fileName, bytes memory _encryptedKey) public {\n        require(files[_fileName].owner == msg.sender, \"Only owner can approve access\");\n        require(accessRequests[_fileName].exists, \"Access request does not exist\");\n\n        accessRequests[_fileName].approved = true;\n        accessRequests[_fileName].encryptedKey = _encryptedKey;  // Store the encrypted AES key\n        emit AccessApproved(_fileName, accessRequests[_fileName].requester);\n    }\n\n    // Check if access is approved\n    function isAccessApproved(string memory _fileName) public view returns (bool) {\n        return accessRequests[_fileName].approved;\n    }\n}\n",
  "sourcePath": "/Users/anishadhikari/Desktop/project/file-sharing-app/truffle_project/contracts/FileSharing.sol",
  "compiler": {
    "name": "solc",
    "version": "0.8.0+commit.c7dfd78e.Emscripten.clang"
  },
  "schemaVersion": "3.4.16",
  "updatedAt": "2024-10-22T00:54:13.339Z",
  "networkType": "ethereum",
  "devdoc": {
    "kind": "dev",
    "methods": {},
    "version": 1
  },
  "userdoc": {
    "kind": "user",
    "methods": {},
    "version": 1
  }
}